{
  "contractName": "HashCommit",
  "abi": [
    {
      "constant": true,
      "inputs": [],
      "name": "masterHash",
      "outputs": [
        {
          "name": "",
          "type": "bytes32"
        }
      ],
      "payable": false,
      "stateMutability": "view",
      "type": "function",
      "signature": "0xff4417d5"
    },
    {
      "inputs": [],
      "payable": false,
      "stateMutability": "nonpayable",
      "type": "constructor",
      "signature": "constructor"
    },
    {
      "anonymous": false,
      "inputs": [
        {
          "indexed": false,
          "name": "hash",
          "type": "bytes32"
        },
        {
          "indexed": false,
          "name": "newMasterHash",
          "type": "bytes32"
        }
      ],
      "name": "Hash",
      "type": "event",
      "signature": "0x1c6c6ff40a06be56705d4004ffbea3dbcf350ad4b2d9872ffadf91b5e39b5a6e"
    },
    {
      "anonymous": false,
      "inputs": [
        {
          "indexed": true,
          "name": "previousOwner",
          "type": "address"
        },
        {
          "indexed": true,
          "name": "newOwner",
          "type": "address"
        }
      ],
      "name": "OwnershipTransferred",
      "type": "event",
      "signature": "0x8be0079c531659141344cd1fd0a4f28419497f9722a3daafe3b4186f6b6457e0"
    },
    {
      "constant": false,
      "inputs": [
        {
          "name": "hash",
          "type": "bytes32"
        }
      ],
      "name": "updateHash",
      "outputs": [],
      "payable": false,
      "stateMutability": "nonpayable",
      "type": "function",
      "signature": "0x438114d0"
    },
    {
      "constant": false,
      "inputs": [],
      "name": "hashAlgo",
      "outputs": [
        {
          "name": "",
          "type": "string"
        }
      ],
      "payable": false,
      "stateMutability": "nonpayable",
      "type": "function",
      "signature": "0xbae1d762"
    },
    {
      "constant": true,
      "inputs": [],
      "name": "getOwner",
      "outputs": [
        {
          "name": "",
          "type": "address"
        }
      ],
      "payable": false,
      "stateMutability": "view",
      "type": "function",
      "signature": "0x893d20e8"
    },
    {
      "constant": false,
      "inputs": [
        {
          "name": "newOwner",
          "type": "address"
        }
      ],
      "name": "transferOwnership",
      "outputs": [],
      "payable": false,
      "stateMutability": "nonpayable",
      "type": "function",
      "signature": "0xf2fde38b"
    }
  ],
  "bytecode": "0x6080604052600060010260019060001916905534801561001e57600080fd5b50336000806101000a81548173ffffffffffffffffffffffffffffffffffffffff021916908373ffffffffffffffffffffffffffffffffffffffff1602179055506105178061006e6000396000f30060806040526004361061006d576000357c0100000000000000000000000000000000000000000000000000000000900463ffffffff168063438114d014610072578063893d20e8146100a3578063bae1d762146100fa578063f2fde38b1461018a578063ff4417d5146101cd575b600080fd5b34801561007e57600080fd5b506100a16004803603810190808035600019169060200190929190505050610200565b005b3480156100af57600080fd5b506100b86102e9565b604051808273ffffffffffffffffffffffffffffffffffffffff1673ffffffffffffffffffffffffffffffffffffffff16815260200191505060405180910390f35b34801561010657600080fd5b5061010f6102f8565b6040518080602001828103825283818151815260200191508051906020019080838360005b8381101561014f578082015181840152602081019050610134565b50505050905090810190601f16801561017c5780820380516001836020036101000a031916815260200191505b509250505060405180910390f35b34801561019657600080fd5b506101cb600480360381019080803573ffffffffffffffffffffffffffffffffffffffff16906020019092919050505061035b565b005b3480156101d957600080fd5b506101e2610367565b60405180826000191660001916815260200191505060405180910390f35b6000809054906101000a900473ffffffffffffffffffffffffffffffffffffffff1673ffffffffffffffffffffffffffffffffffffffff163373ffffffffffffffffffffffffffffffffffffffff1614151561025b57600080fd5b806001546040518083600019166000191681526020018260001916600019168152602001925050506040518091039020600181600019169055507f1c6c6ff40a06be56705d4004ffbea3dbcf350ad4b2d9872ffadf91b5e39b5a6e8160015460405180836000191660001916815260200182600019166000191681526020019250505060405180910390a150565b60006102f361036d565b905090565b60608060405190810160405280603181526020017f2f2f206a730a20776562332e7574696c732e736f6c696469747953686133286881526020017f6173682c206d617374657248617368293b000000000000000000000000000000815250905090565b61036481610396565b50565b60015481565b60008060009054906101000a900473ffffffffffffffffffffffffffffffffffffffff16905090565b6000809054906101000a900473ffffffffffffffffffffffffffffffffffffffff1673ffffffffffffffffffffffffffffffffffffffff163373ffffffffffffffffffffffffffffffffffffffff161415156103f157600080fd5b600073ffffffffffffffffffffffffffffffffffffffff168173ffffffffffffffffffffffffffffffffffffffff161415151561042d57600080fd5b8073ffffffffffffffffffffffffffffffffffffffff166000809054906101000a900473ffffffffffffffffffffffffffffffffffffffff1673ffffffffffffffffffffffffffffffffffffffff167f8be0079c531659141344cd1fd0a4f28419497f9722a3daafe3b4186f6b6457e060405160405180910390a3806000806101000a81548173ffffffffffffffffffffffffffffffffffffffff021916908373ffffffffffffffffffffffffffffffffffffffff160217905550505600a165627a7a723058202f0f3f20602ab6da81b800586dc44c81ab397d011acc9d8feefacd8fef29e6d10029",
  "source": "pragma solidity ^0.4.20;\n\nimport \"./Ownable.sol\";\n\ncontract HashCommit is Ownable {\n  constructor() public Ownable() { }\n\n  event Hash(bytes32 hash, bytes32 newMasterHash);\n\n  bytes32 public masterHash = 0x0;\n\n  function updateHash(bytes32 hash) onlyOwner public {\n    masterHash = sha3(hash, masterHash);\n    emit Hash(hash, masterHash);\n  }\n\n  function hashAlgo() public returns(string){\n    return '// js\\n web3.utils.soliditySha3(hash, masterHash);';\n  }\n\n  // Ownable interface\n  function getOwner() public view returns (address) { return _getOwner(); }\n\n  function transferOwnership(address newOwner) public { return _transferOwnership(newOwner); }\n\n}\n",
  "sourcePath": "/home/nickgeoca/work2/ark-poc/contracts/HashCommit.sol",
  "compiler": {
    "name": "solc",
    "version": "0.4.24+commit.e67f0147.Emscripten.clang"
  },
  "schemaVersion": "3.0.0-beta.0",
  "updatedAt": "2018-10-17T18:30:52.238Z"
}